{
  "_format": "hh-sol-artifact-1",
  "contractName": "Assessment",
  "sourceName": "contracts/Assessment.sol",
  "abi": [
    {
      "inputs": [
        {
          "internalType": "uint256",
          "name": "initBalance",
          "type": "uint256"
        }
      ],
      "stateMutability": "payable",
      "type": "constructor"
    },
    {
      "inputs": [
        {
          "internalType": "uint256",
          "name": "balance",
          "type": "uint256"
        },
        {
          "internalType": "uint256",
          "name": "withdrawAmount",
          "type": "uint256"
        }
      ],
      "name": "InsufficientBalance",
      "type": "error"
    },
    {
      "anonymous": false,
      "inputs": [
        {
          "indexed": false,
          "internalType": "uint256",
          "name": "amount",
          "type": "uint256"
        }
      ],
      "name": "Deposit",
      "type": "event"
    },
    {
      "anonymous": false,
      "inputs": [
        {
          "indexed": false,
          "internalType": "uint256",
          "name": "amount",
          "type": "uint256"
        }
      ],
      "name": "Withdraw",
      "type": "event"
    },
    {
      "inputs": [],
      "name": "balance",
      "outputs": [
        {
          "internalType": "uint256",
          "name": "",
          "type": "uint256"
        }
      ],
      "stateMutability": "view",
      "type": "function"
    },
    {
      "inputs": [
        {
          "internalType": "uint256",
          "name": "_amount",
          "type": "uint256"
        }
      ],
      "name": "deposit",
      "outputs": [],
      "stateMutability": "payable",
      "type": "function"
    },
    {
      "inputs": [],
      "name": "deposit50",
      "outputs": [],
      "stateMutability": "nonpayable",
      "type": "function"
    },
    {
      "inputs": [],
      "name": "getBalance",
      "outputs": [
        {
          "internalType": "uint256",
          "name": "",
          "type": "uint256"
        }
      ],
      "stateMutability": "view",
      "type": "function"
    },
    {
      "inputs": [],
      "name": "owner",
      "outputs": [
        {
          "internalType": "address payable",
          "name": "",
          "type": "address"
        }
      ],
      "stateMutability": "view",
      "type": "function"
    },
    {
      "inputs": [
        {
          "internalType": "uint256",
          "name": "_withdrawAmount",
          "type": "uint256"
        }
      ],
      "name": "withdraw",
      "outputs": [],
      "stateMutability": "nonpayable",
      "type": "function"
    }
  ],
  "bytecode": "0x6080604052604051610883380380610883833981810160405281019061002591906100ad565b336000806101000a81548173ffffffffffffffffffffffffffffffffffffffff021916908373ffffffffffffffffffffffffffffffffffffffff16021790555080600181905550506100da565b600080fd5b6000819050919050565b61008a81610077565b811461009557600080fd5b50565b6000815190506100a781610081565b92915050565b6000602082840312156100c3576100c2610072565b5b60006100d184828501610098565b91505092915050565b61079a806100e96000396000f3fe6080604052600436106100555760003560e01c806312065fe01461005a578063294f3ae6146100855780632e1a7d4d1461009c5780638da5cb5b146100c5578063b69ef8a8146100f0578063b6b55f251461011b575b600080fd5b34801561006657600080fd5b5061006f610137565b60405161007c919061046b565b60405180910390f35b34801561009157600080fd5b5061009a610141565b005b3480156100a857600080fd5b506100c360048036038101906100be91906104b7565b6101d1565b005b3480156100d157600080fd5b506100da610322565b6040516100e79190610525565b60405180910390f35b3480156100fc57600080fd5b50610105610346565b604051610112919061046b565b60405180910390f35b610135600480360381019061013091906104b7565b61034c565b005b6000600154905090565b60008054906101000a900473ffffffffffffffffffffffffffffffffffffffff1673ffffffffffffffffffffffffffffffffffffffff163373ffffffffffffffffffffffffffffffffffffffff16146101cf576040517f08c379a00000000000000000000000000000000000000000000000000000000081526004016101c6906105c3565b60405180910390fd5b565b60008054906101000a900473ffffffffffffffffffffffffffffffffffffffff1673ffffffffffffffffffffffffffffffffffffffff163373ffffffffffffffffffffffffffffffffffffffff161461025f576040517f08c379a000000000000000000000000000000000000000000000000000000000815260040161025690610655565b60405180910390fd5b600060015490508160015410156102b157600154826040517fcf4791810000000000000000000000000000000000000000000000000000000081526004016102a8929190610675565b60405180910390fd5b81600160008282546102c391906106cd565b9250508190555081816102d691906106cd565b600154146102e7576102e6610701565b5b7f5b6b431d4476a211bb7d41c20d1aab9ae2321deee0d20be3d9fc9b1093fa6e3d82604051610316919061046b565b60405180910390a15050565b60008054906101000a900473ffffffffffffffffffffffffffffffffffffffff1681565b60015481565b6000600154905060008054906101000a900473ffffffffffffffffffffffffffffffffffffffff1673ffffffffffffffffffffffffffffffffffffffff163373ffffffffffffffffffffffffffffffffffffffff16146103e1576040517f08c379a00000000000000000000000000000000000000000000000000000000081526004016103d890610655565b60405180910390fd5b81600160008282546103f39190610730565b9250508190555081816104069190610730565b6001541461041757610416610701565b5b7f4d6ce1e535dbade1c23defba91e23b8f791ce5edc0cc320257a2b364e4e3842682604051610446919061046b565b60405180910390a15050565b6000819050919050565b61046581610452565b82525050565b6000602082019050610480600083018461045c565b92915050565b600080fd5b61049481610452565b811461049f57600080fd5b50565b6000813590506104b18161048b565b92915050565b6000602082840312156104cd576104cc610486565b5b60006104db848285016104a2565b91505092915050565b600073ffffffffffffffffffffffffffffffffffffffff82169050919050565b600061050f826104e4565b9050919050565b61051f81610504565b82525050565b600060208201905061053a6000830184610516565b92915050565b600082825260208201905092915050565b7f4f6e6c7920746865206f776e65722063616e206465706f73697420353020696e60008201527f746f20746865206163636f756e74000000000000000000000000000000000000602082015250565b60006105ad602e83610540565b91506105b882610551565b604082019050919050565b600060208201905081810360008301526105dc816105a0565b9050919050565b7f596f7520617265206e6f7420746865206f776e6572206f66207468697320616360008201527f636f756e74000000000000000000000000000000000000000000000000000000602082015250565b600061063f602583610540565b915061064a826105e3565b604082019050919050565b6000602082019050818103600083015261066e81610632565b9050919050565b600060408201905061068a600083018561045c565b610697602083018461045c565b9392505050565b7f4e487b7100000000000000000000000000000000000000000000000000000000600052601160045260246000fd5b60006106d882610452565b91506106e383610452565b92508282039050818111156106fb576106fa61069e565b5b92915050565b7f4e487b7100000000000000000000000000000000000000000000000000000000600052600160045260246000fd5b600061073b82610452565b915061074683610452565b925082820190508082111561075e5761075d61069e565b5b9291505056fea2646970667358221220b83987a2f4b54ac66641a6ff6a29d08944b81288a345dfb0444a7b3bdd473e7b64736f6c63430008110033",
  "linkReferences": {},
  "deployedLinkReferences": {}
}